{
  "contractName": "Shipping",
  "abi": [
    {
      "inputs": [],
      "payable": false,
      "stateMutability": "nonpayable",
      "type": "constructor"
    },
    {
      "anonymous": false,
      "inputs": [
        {
          "indexed": false,
          "name": "description",
          "type": "string"
        }
      ],
      "name": "LogNewAlert",
      "type": "event"
    },
    {
      "constant": false,
      "inputs": [],
      "name": "Shipped",
      "outputs": [],
      "payable": false,
      "stateMutability": "nonpayable",
      "type": "function"
    },
    {
      "constant": false,
      "inputs": [],
      "name": "Delivered",
      "outputs": [],
      "payable": false,
      "stateMutability": "nonpayable",
      "type": "function"
    },
    {
      "constant": true,
      "inputs": [],
      "name": "Status",
      "outputs": [
        {
          "name": "",
          "type": "string"
        }
      ],
      "payable": false,
      "stateMutability": "view",
      "type": "function"
    }
  ],
  "bytecode": "0x608060405234801561001057600080fd5b5060008060006101000a81548160ff0219169083600281111561002f57fe5b021790555061039f806100436000396000f3fe608060405260043610610057576000357c0100000000000000000000000000000000000000000000000000000000900463ffffffff16806345f09ce91461005c578063779822f7146100ec5780637e59301e14610103575b600080fd5b34801561006857600080fd5b5061007161011a565b6040518080602001828103825283818151815260200191508051906020019080838360005b838110156100b1578082015181840152602081019050610096565b50505050905090810190601f1680156100de5780820380516001836020036101000a031916815260200191505b509250505060405180910390f35b3480156100f857600080fd5b5061010161013e565b005b34801561010f57600080fd5b506101186101cb565b005b606060008060009054906101000a900460ff16905061013881610258565b91505090565b60026000806101000a81548160ff0219169083600281111561015c57fe5b02179055507fca75c80642b93c980135b8355995abae3ab06033dc81f956b3824323b4903ef56040518080602001828103825260188152602001807f596f7572207061636b616765206861732061727269766564000000000000000081525060200191505060405180910390a1565b60016000806101000a81548160ff021916908360028111156101e957fe5b02179055507fca75c80642b93c980135b8355995abae3ab06033dc81f956b3824323b4903ef560405180806020018281038252601d8152602001807f596f7572207061636b61676520686173206265656e207368697070656400000081525060200191505060405180910390a1565b606081600281111561026657fe5b6000600281111561027357fe5b14156102b6576040805190810160405280600781526020017f50656e64696e6700000000000000000000000000000000000000000000000000815250905061036e565b8160028111156102c257fe5b600160028111156102cf57fe5b1415610312576040805190810160405280600781526020017f5368697070656400000000000000000000000000000000000000000000000000815250905061036e565b81600281111561031e57fe5b60028081111561032a57fe5b141561036d576040805190810160405280600981526020017f44656c6976657265640000000000000000000000000000000000000000000000815250905061036e565b5b91905056fea165627a7a72305820e26d8aa05dbb4e43073c6e885c8103ab63d756f8b63956dbd07bc640ec16200a0029",
  "source": "pragma solidity ^0.5.0;\r\n\r\ncontract Shipping{\r\n    enum ShippingStatus {Pending, Shipped, Delivered}\r\n\r\n    ShippingStatus private status;\r\n\r\n    event LogNewAlert(string description);\r\n\r\n    constructor() public {\r\n        status = ShippingStatus.Pending;\r\n    }\r\n\r\n    function Shipped() public {\r\n        status = ShippingStatus.Shipped;\r\n        emit LogNewAlert(\"Your package has been shipped\");\r\n    }\r\n\r\n    function Delivered() public {\r\n        status = ShippingStatus.Delivered;\r\n        emit LogNewAlert(\"Your package has arrived\");\r\n    }\r\n\r\n    function getStatus(ShippingStatus _status) internal pure returns (string memory) {\r\n        if(ShippingStatus.Pending == _status) return \"Pending\";\r\n        if(ShippingStatus.Shipped == _status) return \"Shipped\";\r\n        if(ShippingStatus.Delivered == _status) return \"Delivered\";\r\n    }\r\n\r\n    function Status()  public view returns (string memory){\r\n        ShippingStatus _status = status;\r\n        return getStatus(_status);\r\n    }\r\n}",
  "sourcePath": "C:\\Users\\User\\Videos\\Shipping\\contracts\\shipping.sol",
  "compiler": {
    "name": "solc",
    "version": "0.5.0+commit.1d4f565a.Emscripten.clang"
  },
  "schemaVersion": "3.4.9",
  "updatedAt": "2022-09-05T08:08:32.990Z",
  "devdoc": {
    "methods": {}
  },
  "userdoc": {
    "methods": {}
  }
}